S01500006B616C6D616E2D46696C7465722E7372656308
S11300000C9434000C9451000C9451000C94510045
S11300100C9451000C9451000C9451000C94510018
S11300200C9451000C9451000C9451000C94510008
S11300300C9451000C9451000C9451000C945100F8
S11300400C9451000C9451000C9451000C945100E8
S11300500C9451000C9451000C9451000C945100D8
S11300600C9451000C94510011241FBECFEFD8E022
S1130070DEBFCDBF21E0A6E0B1E001C01D92A234F5
S1130080B207E1F711E0A0E0B1E0E8E3FAE102C071
S113009005900D92A630B107D9F70E9497020C94EF
S11300A01A0D0C940000E0911C01F0911D010190C7
S11300B0F081E02D60837183828393838EE191E0EC
S11300C00E94E0028EE091E00E94E00266E071E0AE
S11300D08AE291E00E94620460931E0170931F0102
S11300E080932001909321016AE071E08EE191E018
S11300F00E9438056EE271E00E946D036AE071E0CF
S113010086E091E00E94620460930E0170930F01F7
S113011080931001909311018EE191E00E944A09AD
S1130120BC018EE091E00E9438058EE191E00E94CE
S1130130E0028AE391E00E94E00266E271E08AE272
S113014091E00E94620460933A0170933B018093B2
S11301503C0190933D016EE171E08AE191E00E94DF
S1130160410460931E0170931F01809320019093BA
S113017021018AE391E00E94E0026EE171E08EE0E9
S113018091E00E94620460933A0170933B01809372
S11301903C0190933D0166E271E08AE391E00E94A4
S11301A06D038EE191E00E94E00286E391E00E94FB
S11301B0E0026AE271E08EE091E00E9462046093E2
S11301C01E0170931F0180932001909321016EE121
S11301D071E082E291E00E944104609336017093E1
S11301E03701809338019093390166E071E086E32A
S11301F091E00E94380586E291E00E94E0026AE301
S113020071E082E391E00E9462046093260170939E
S11302102701809328019093290186E091E00E94B0
S1130220E00266E371E082E391E00E94620460937D
S1130230060170930701809308019093090166E118
S113024071E086E091E00E94380562E171E00E946D
S11302506D0308958F929F92AF92BF92CF92DF92D7
S1130260EF92FF92CF93DF9341E062E086E291E068
S11302700E94AC02E6E2F1E0A281B3810D90BC9150
S1130280A02D0F2EFDEC8F2EFCEC9F2EFCE4AF2E48
S1130290FEE3BF2EF02D8D929D92AD92BC921397EA
S11302A00280F381E02D0280F381E02D8DEC9CEC43
S11302B0ACECBDE380839183A283B38341E062E02D
S11302C08AE391E00E94AC0241E061E08AE191E0BE
S11302D00E94AC02E0911C01F0911D010190F0819B
S11302E0E02D80E090E0A0E0BFE380839183A283CF
S11302F0B38342E062E082E391E00E94AC02E2E375
S1130300F1E0A281B3810D90BC91A02D0F2EC12CE0
S1130310D12CF0E8EF2EFFE3FF2EF02DCD92DD92ED
S1130320ED92FC921397A281B381CD91DC91119748
S1130330CC82DD82EE82FF8212960D90BC91A02DBC
S11303401D921D921D921C9213970280F381E02D41
S11303500280F381E02DC482D582E682F78282E3B3
S113036091E00E94350A60931601709317018093FF
S113037018019093190142E061E08AE291E00E9441
S1130380AC02EAE2F1E0A281B3810D90BC91A02D10
S1130390CD92DD92ED92FC9213970280F381E02DD1
S11303A00190F081E02D14821582168217828AE270
S11303B091E00E94350A60930A0170930B018093C7
S11303C00C0190930D0142E062E086E091E00E940E
S11303D0AC02E6E0F1E0A281B3810D90BC91A02DC6
S11303E08D929D92AD92BC921397A281B381CD91CF
S11303F0DC9111971C821D821E821F8212960D9021
S1130400BC91A02D1D921D921D921C9213970280E7
S1130410F381E02D0280F381E02D8DEC9CECACECBB
S1130420BEE384839583A683B78342E062E086E3D8
S113043091E00E94AC0241E061E08EE291E00E9412
S1130440AC02E0913001F09131010190F081E02D96
S113045080829182A282B38242E062E082E191E0F2
S11304600E94AC02E2E1F1E0A281B3810D90BC9163
S1130470A02D1D921D921D921C921397A281B381EF
S1130480CD91DC9111971C821D821E821F821296CF
S11304900D90BC91A02D1D921D921D921C9213973C
S11304A00280F381E02D0280F381E02D80E090E072
S11304B0A0E8B0E484839583A683B78342E062E036
S11304C082E291E00E94AC02E2E2F1E0A281B38117
S11304D00D90BC91A02DCD92DD92ED92FC921397DC
S11304E0A281B381CD91DC9111971C821D821E8261
S11304F01F8212960D90BC91A02D1D921D921D92EB
S11305001C9213970280F381E02D0280F381E02D89
S1130510C482D582E682F782DF91CF91FF90EF907B
S1130520DF90CF90BF90AF909F908F9008950E94DE
S11305302A0160E070E080E09FE30E94530060E0E5
S113054070E080E89FE30E94530066E676E686EA60
S11305509FE30E945300FFCFEF92FF921F93CF932C
S1130560DF937C01FC0160834183862F90E0880F38
S1130570991F0E94ED0BF701938382838081882366
S1130580C9F010E0C12FD0E0CC0FDD1FF70182814C
S11305909381C80FD91F818190E0880F991F880F1C
S11305A0991F0E94ED0B998388831F5FF701808157
S11305B0181740F3DF91CF911F91FF90EF900895AA
S11305C00F931F93CF938C01DC018C918823A9F0A6
S11305D0C0E0EC2FF0E0EE0FFF1FD80112968D91D2
S11305E09C911397E80FF91F808191810E94820CDE
S11305F0CF5FF8018081C81760F3D80112968D91FE
S11306009C9113970E94820CF80110821182CF9161
S11306101F910F910895CF92DF92EF92FF920F9363
S11306201F93CF93DF9300D000D0CDB7DEB78C01FA
S1130630DC0111964C9111976C91CE0101960E94A8
S1130640AC02898181112DC037C0292F30E0220FDF
S1130650331F220F331FD8011296ED91FC9113978B
S1130660E40FF51F0190F081E02DE20FF31FC0802D
S1130670D180E280F380EB81FC81E40FF51F0190CF
S1130680F081E02DE20FF31FC082D182E282F38277
S11306909F5F8A819817C8F26F5F8981681718F085
S11306A00BC060E070E08A818823B1F3462F50E0EC
S11306B0440F551F972FC9CF69817A818B819C8103
S11306C00F900F900F900F90DF91CF911F910F918A
S11306D0FF90EF90DF90CF9008959F92AF92BF92DA
S11306E0CF92DF92EF92FF920F931F93CF93DF93FA
S11306F08C016B01DC018C91FB01908189134AC050
S113070011962C919181291345C0811137C042C0A3
S11307102B2D30E0220F331F220F331FD8011296E6
S1130720ED91FC911397EE0DFF1DC081D181C20F95
S1130730D31FD6011296ED91FC911397EE0DFF1D78
S113074080819181FC01E20FF31F2081318142817C
S11307505381688179818A819B810E94510A6883CF
S113076079838A839B83B394F8018181B81680F2DC
S1130770A394D8018C91A81618F00CC0A12C912C2C
S1130780F80181818823A1F3EA2CF12CEE0CFF1CE3
S1130790B92CBECFC801DF91CF911F910F91FF906B
S11307A0EF90DF90CF90BF90AF909F9008959F926D
S11307B0AF92BF92CF92DF92EF92FF920F931F936B
S11307C0CF93DF938C016B01DC018C91FB01908151
S11307D089134AC011962C919181291345C0811126
S11307E037C042C02B2D30E0220F331F220F331F9E
S11307F0D8011296ED91FC911397EE0DFF1DC08167
S1130800D181C20FD31FD6011296ED91FC9113979B
S1130810EE0DFF1D80819181FC01E20FF31F208109
S1130820318142815381688179818A819B810E94CF
S1130830500A688379838A839B83B394F801818106
S1130840B81680F2A394D8018C91A81618F00CC0A5
S1130850A12C912CF80181818823A1F3EA2CF12C9D
S1130860EE0CFF1CB92CBECFC801DF91CF911F91B4
S11308700F91FF90EF90DF90CF90BF90AF909F903B
S113088008950F931F93CF93DF9300D000D0CDB77B
S1130890DEB78B010E940B0369837A838B839C836D
S11308A0B801CE0101960E94D70369817A818B81B8
S11308B09C810F900F900F900F90DF91CF911F911B
S11308C00F9108952F923F924F925F926F927F9271
S11308D08F929F92AF92BF92CF92DF92EF92FF924C
S11308E00F931F93CF93DF93CDB7DEB729970FB63E
S11308F0F894DEBF0FBECDBF9E838D8378876F8350
S1130900DC0111969C911197FB01808198138DC095
S113091041816C91CE0101960E94AC02AD81BE81F1
S11309208C91811174C087C0F8016191719181919A
S113093091918F01D701ED91FD917D01EA0DFB1D90
S113094020813181428153810E94800B9B01AC0143
S1130950662D772D882D992D0E94510A662E772EAB
S1130960882E992E0C151D05F9F604C0642C712CE3
S1130970812C912CEB81FC81E20DF31D0190F0811F
S1130980E02DB4E05B9EE00DF11D1124862D972D22
S1130990A82DB92D80839183A283B3835394EF81CF
S11309A0F8858181581650F5AD81BE811196CC90A1
S11309B01197CC20D9F21296ED91FC911397E20D88
S11309C0F31D80819181A52CB12CAA0CBB1CAA0C0F
S11309D0BB1C8C01EF81F885E280F380CA94D12C92
S11309E0FFEFCF1ADF0ACC0CDD1CCC0CDD1CC80ECB
S11309F0D91E642C712C812C912C96CF29852F5FC4
S1130A002987AD81BE818C91281718F014C01986EE
S1130A10412CEF81F8858181882381F3F9852F2E7C
S1130A20312C220C331C512CBFCF40E060E0CE01AE
S1130A3001960E94AC0269817A818B819C812996FE
S1130A400FB6F894DEBF0FBECDBFDF91CF911F91DB
S1130A500F91FF90EF90DF90CF90BF90AF909F9059
S1130A608F907F906F905F904F903F902F9008955C
S1130A700F931F93CF93DF9300D000D0CDB7DEB791
S1130A808C01FC0180819181A281B38189839A8345
S1130A90AB83BC83C8010E946204F8016083718344
S1130AA082839383CE0101960E94E002C8010F90D5
S1130AB00F900F900F90DF91CF911F910F91089598
S1130AC07F928F929F92AF92BF92CF92DF92EF92DA
S1130AD0FF920F931F93CF93DF937C014A015B0135
S1130AE0DC018C91811126C031C0D7011296ED91A1
S1130AF0FC911397EC0DFD1DC081D181B4E01B9FC7
S1130B00C00DD11D1124A5019401688179818A81C8
S1130B109B810E94800B688379838A839B831F5FF8
S1130B20F7018181181708F30F5FD7018C9108171B
S1130B3018F00CC000E0712CF70181818823A1F327
S1130B40C02ED12CCC0CDD1C172DCFCFC701DF91CB
S1130B50CF911F910F91FF90EF90DF90CF90BF90B6
S1130B60AF909F908F907F9008952F923F924F92D5
S1130B705F926F927F928F929F92AF92BF92CF9229
S1130B80DF92EF92FF920F931F93CF93DF93CDB732
S1130B90DEB760970FB6F894DEBF0FBECDBF9E835D
S1130BA08D83662309F436C181E068130FC0AD81DB
S1130BB0BE812D913C91D9018D919D910D90BC9157
S1130BC0A02D89839A83AB83BC8328C1B2E06B13C5
S1130BD02FC0ED81FE8100811181A280B380D501F7
S1130BE014962D913D914D915C911797F801608178
S1130BF07181828193810E94800B6B017C01D801F9
S1130C0014962D913D914D915C911797F50160815A
S1130C107181828193810E94800B9B01AC01C70189
S1130C20B6010E94500A69837A838B839C83F6C041
S1130C30062F10E001501109C801880F991F9887E9
S1130C408F831801220C331C220C331C812C912C11
S1130C5019821A821B821C82612CA12C9D819A8785
S1130C60AE81AB87B12CC12CDA2CBFEFB60FB9879C
S1130C7078016D866C878F8198850E94ED0B8C01BD
S1130C801E141F04B4F47A2C5D846C84C1010E9488
S1130C90ED0BE72DF0E0EE0FFF1FE00FF11F918346
S1130CA080837394872D90E08E159F057CF35D8679
S1130CB06C86EC85E23008F444C0A801AA85BB85A3
S1130CC061E027013801F62E0D851E2FBD01DA01E2
S1130CD02BC08017D1F0AD85BE851296ED91FC91A5
S1130CE01397E20FF31F4081518162817381AF85B5
S1130CF0B889ED91FC91B4E09B9FE00DF11D1124A6
S1130D0040835183628373839F5F8F5F2C5F3F4F68
S1130D108113DFCFAF85B8896D857E85F3941296F4
S1130D206E5F7F4FF11649F02B2D3C2D9D2D8D2D9F
S1130D30B88BAF877E876D87CCCF72010D871C87F8
S1130D408301ED85E0FF21C0AD81BE81ED91FC9171
S1130D50E80DF91D40805180628073806985C80167
S1130D600E94B5059B01AC01C301B2010E94800B36
S1130D709B01AC0169817A818B819C810E94500A1C
S1130D8069837A838B839C8320C0AD81BE81ED917E
S1130D90FC91E80DF91D4080518062807380698563
S1130DA0C8010E94B5059B01AC01C301B2010E94B8
S1130DB0800B9B01AC0169817A818B819C810E94AB
S1130DC0510A69837A838B839C831E141F04ACF4B9
S1130DD05A2C6D847C84E52DF0E0EE0FFF1FE00FAC
S1130DE0F11F808191810E94820C5394852D90E0A3
S1130DF08E159F0584F36D867C86C8010E94820C43
S1130E00BD85BF5FBD87E4E08E0E911CFC85BF13DA
S1130E1032CF04C019821A821B821C8269817A81B2
S1130E208B819C8160960FB6F894DEBF0FBECDBF58
S1130E30DF91CF911F910F91FF90EF90DF90CF90B2
S1130E40BF90AF909F908F907F906F905F904F90E6
S1130E503F902F900895FC0161812081621305C0A9
S1130E60828193810E94B505089560E070E0CB0112
S1130E7008952F923F924F925F926F927F928F923A
S1130E809F92AF92BF92CF92DF92EF92FF920F9315
S1130E901F93CF93DF93CDB7DEB760970FB6F89467
S1130EA0DEBF0FBECDBFA82EB92EF62EC42ED52E72
S1130EB0862F90E09C01215031093A872987C90186
S1130EC0880F991F0E94ED0B3C0189859A8518169D
S1130ED019060CF0CBC08C01000F111F000F111F5D
S1130EE0E12CC8010E94ED0BEE2DF0E0EE0FFF1F88
S1130EF0E60DF71D91838083E3948E2D90E0A98500
S1130F00BA858A179B076CF3B4C0811781F1A52FAA
S1130F10B0E0AA0FBB1FA60DB71D252D342D4C2DF7
S1130F209C2D7E876D87B88BAF879E15C1F0AD85EC
S1130F30BE85ED91FC91E20FF31F80809180A28029
S1130F40B380AF85B889ED91FC91B4E04B9FE00D7F
S1130F50F11D112480829182A282B3824F5F9F5F30
S1130F602C5F3F4F9F1508F36D857E855F5F8F5F14
S1130F706E5F7F4F8F1548F26F81C3010E94B505E4
S1130F802B813C81220D331D20FF10C0A981BA8121
S1130F90ED91FC912D813E81E20FF31FDC01CB0129
S1130FA0B05880839183A283B3830CC0A981BA8192
S1130FB0ED91FC912D813E81E20FF31F60837183DB
S1130FC0828393831F5F3FEF231A330A89819A81B7
S1130FD002969A8389831F1528F468857D2D502FE6
S1130FE0802F93CFE394AB81BC811196BC83AB83F8
S1130FF0ED81FE813496FE83ED83EF1498F01AC0E0
S1131000212C312C1C821B82E12CCB86DC8600E057
S1131010A886DB2C512C412CC02EFFEFFF0DFF8343
S11310203E822D822B8529833C853A83212C312CC9
S113103010E0D3CF89859A85181619069CF410E020
S1131040E12FF0E0EE0FFF1FE60DF71D8081918187
S11310500E94820C1F5F812F90E0A985BA858A17B0
S11310609B0774F3C3010E94820C06C0F110C8CF21
S1131070F9CFF110C5CFE3CF60960FB6F894DEBF79
S11310800FBECDBFDF91CF911F910F91FF90EF90D5
S1131090DF90CF90BF90AF909F908F907F906F9094
S11310A05F904F903F902F9008952F923F924F92D0
S11310B05F926F927F928F929F92AF92BF92CF92E4
S11310C0DF92EF92FF920F931F93CF93DF9300D0A1
S11310D000D0CDB7DEB76C016230A0F551C0A98154
S11310E0BA814D915C91FA01E20FF31F4081518165
S11310F062817381CB80DC80D601ED90FD90BC834E
S1131100AB83E00EF11ED7014D905D906D907C9005
S11311104082518262827382D601ED91FC91E00F8C
S1131120F11F40835183628373839F5F2C5F3F4F22
S11311308913D5CF7B2D64016A2DBA1408F58F5F0E
S11311407F5F04C072E081E03C2C2D2C8823B9F32E
S1131150082F10E07801EE0CFF1CEC0CFD1C000FB6
S1131160111F000F111F432D522D20E030E090E09D
S1131170FA82E9825C834B83B72E4601A62EAFCF59
S11311800F900F900F900F90DF91CF911F910F91BF
S1131190FF90EF90DF90CF90BF90AF909F908F9093
S11311A07F906F905F904F903F902F900895EF92B3
S11311B0FF920F931F93CF93DF9300D000D0CDB74E
S11311C0DEB78C01DC0111966C911197613029F521
S11311D08C91813009F049C041E0CE0101960E9412
S11311E0AC02EB81FC81E080F180D8011296ED9194
S11311F0FC9113970190F081E02D2081318142818F
S1131200538160E070E080E89FE30E94BD0AF7012B
S113121060837183828393832EC0DC018C91681375
S113122024C0462FCE0101960E94AC024B815C8102
S1131230F8016081828193810E94390769818B81E1
S11312409C810E945508C8010E942B079B01AC0198
S113125060E070E080E89FE30E94BD0AAB01BC013E
S1131260CE0101960E94600506C040E060E0CE0118
S113127001960E94AC0269817A818B819C810F90D6
S11312800F900F900F90DF91CF911F910F91FF90CE
S1131290EF9008950F931F93CF93DF9300D000D066
S11312A0CDB7DEB78C01FC0180819181A281B3812D
S11312B089839A83AB83BC83CE0101960E94D708AD
S11312C0F8016083718382839383CE0101960E9427
S11312D0E002C8010F900F900F900F90DF91CF9113
S11312E01F910F9108952F923F924F925F926F92A8
S11312F07F928F929F92AF92BF92CF92DF92EF92A2
S1131300FF920F931F93CF93DF93EC01A62EB42E7D
S1131310842F90E0880F991F0E94ED0B4C01BB2095
S1131320E1F0CA2CD12CCC0CDD1CCC0CDD1C8C01C6
S1131330EE24EA94EB0CF12C8FEFE81AF80AEE0C89
S1131340FF1CE80CF91CC6010E94ED0BF801819307
S113135091938F01EE15FF05B1F7AA2009F456C049
S1131360AA94CA2CD12CFFEFCF1ADF0ACC0CDD1CB7
S1131370EE24EA94EB0CF12C8FEFE81AF80AEE0C49
S1131380FF1C80E090E0A82C392C212C22C04D9128
S11313905D91E881F981E80FF91FB901660F771FA4
S11313A00190F081E02DE60FF71F408051806280AC
S11313B07380FA01E00FF11F4082518262827382CE
S11313C02E5F3F4F2E153F0511F702968C159D0594
S11313D0A9F0BB20D1F38C01000F111FAA2DB32D4E
S11313E0222D30E0D4CF899199910E94820CCC15A2
S11313F0DD05C9F7C8010E94820C0DC0088119815E
S113140099828882E801C00ED11EEDCF088119812E
S113141099828882EFCFDF91CF911F910F91FF9036
S1131420EF90DF90CF90BF90AF909F908F907F9080
S11314306F905F904F903F902F900895CF93DF93DC
S1131440EC0168814981641305C08A819B810E94F3
S1131450550807C002960E94730988819981988370
S11314608983CE01DF91CF910895CF93DF9300D08C
S113147000D0CDB7DEB70E940B0369837A838B83D8
S11314809C83CE0101960E941E0A69817A818B8118
S11314909C810F900F900F900F90DF91CF91089542
S11314A05058BB27AA270E94680A0C94460B0E9436
S11314B0380B38F00E943F0B20F039F49F3F19F4A9
S11314C026F40C94350B0EF4E095E7FB0C942F0BEB
S11314D0E92F0E94570B58F3BA1762077307840762
S11314E0950720F079F4A6F50C94790B0EF4E095A9
S11314F00B2EBA2FA02D0B01B90190010C01CA01CA
S1131500A0011124FF27591B99F0593F50F4503E74
S113151068F11A16F040A22F232F342F4427585F66
S1131520F3CF469537952795A795F0405395C9F77E
S11315307EF41F16BA0B620B730B840BBAF0915036
S1131540A1F0FF0FBB1F661F771F881FC2F70EC0D5
S1131550BA0F621F731F841F48F4879577956795A8
S1131560B795F7959E3F08F0B0CF9395880F08F094
S11315709927EE0F9795879508950E94D10A0C94A8
S1131580460B0E943F0B58F00E94380B40F029F4A0
S11315905F3F29F00C942F0B51110C947A0B0C948F
S11315A0350B0E94570B68F39923B1F3552391F33C
S11315B0951B550BBB27AA2762177307840738F0BE
S11315C09F5F5F4F220F331F441FAA1FA9F335D01B
S11315D00E2E3AF0E0E832D091505040E695001CCF
S11315E0CAF72BD0FE2F29D0660F771F881FBB1F89
S11315F0261737074807AB07B0E809F0BB0B802D67
S1131600BF01FF2793585F4F3AF09E3F510578F092
S11316100C942F0B0C947A0B5F3FE4F3983ED4F3B5
S1131620869577956795B795F7959F5FC9F7880F66
S1131630911D9695879597F90895E1E0660F771FB8
S1131640881FBB1F621773078407BA0720F0621B49
S1131650730B840BBA0BEE1F88F7E095089597F986
S11316609F6780E870E060E008959FEF80EC089544
S113167000240A941616170618060906089500246D
S11316800A9412161306140605060895092E0394E7
S1131690000C11F4882352F0BB0F40F4BF2B11F45B
S11316A060FF04C06F5F7F4F8F4F9F4F089557FDBA
S11316B09058440F551F59F05F3F71F04795880FBC
S11316C097FB991F61F09F3F79F087950895121653
S11316D013061406551FF2CF4695F1DF08C01616FF
S11316E017061806991FF1CF8695710561050894B0
S11316F00895E894BB2766277727CB0197F90895C7
S11317000E94930B0C94460B0E94380B38F00E94F5
S11317103F0B20F0952311F00C942F0B0C94350BF8
S113172011240C947A0B0E94570B70F3959FC1F30C
S1131730950F50E0551F629FF001729FBB27F00D7B
S1131740B11D639FAA27F00DB11DAA1F649F6627D0
S1131750B00DA11D661F829F2227B00DA11D621F1F
S1131760739FB00DA11D621F839FA00D611D221FD9
S1131770749F3327A00D611D231F849F600D211DBD
S1131780822F762F6A2F11249F5750409AF0F1F040
S113179088234AF0EE0FFF1FBB1F661F771F881FA9
S11317A091505040A9F79E3F510580F00C942F0BA7
S11317B00C947A0B5F3FE4F3983ED4F386957795C7
S11317C06795B795F795E7959F5FC1F7FE2B880F4F
S11317D0911D9695879597F90895CF93DF9382305D
S11317E0910510F482E090E0E0914001F091410114
S11317F020E030E0C0E0D0E0309711F14081518129
S113180048175907C0F04817590761F4828193813A
S1131810209719F09B838A832BC090934101809376
S1131820400126C02115310519F04217530718F459
S11318309A01BE01DF01EF010280F381E02DDCCFCC
S11318402115310509F1281B390B2430310590F499
S113185012968D919C9113976115710521F0FB01EE
S11318609383828304C09093410180934001FD01DE
S1131870329644C0FD01E20FF31F819391932250ED
S113188031092D933C933AC020913E0130913F01A0
S1131890232B41F4209102013091030130933F0145
S11318A020933E0120910001309101012115310561
S11318B041F42DB73EB74091040150910501241B1A
S11318C0350BE0913E01F0913F01E217F307A0F4DC
S11318D02E1B3F0B2817390778F0AC014E5F5F4F82
S11318E02417350748F04E0F5F1F50933F01409374
S11318F03E018193919302C0E0E0F0E0CF01DF91DB
S1131900CF9108950F931F93CF93DF93009709F41A
S11319108CC0FC0132971382128200914001109115
S113192041010115110581F420813181820F931F3A
S113193020913E0130913F012817390779F5F09342
S11319403F01E0933E0171C0D80140E050E0AE1782
S1131950BF0750F412962D913C911397AD012115B8
S1131960310509F1D901F3CF9D01DA0133832283D3
S113197060817181860F971F8217930769F4EC01C8
S113198028813981260F371F2E5F3F4F31832083F3
S11319908A819B8193838283452B29F4F0934101AF
S11319A0E093400142C01396FC93EE931297ED012D
S11319B0499159919E01240F351FE217F30771F4E1
S11319C080819181840F951F029611969C938E932A
S11319D08281938113969C938E931297E0E0F0E0BA
S11319E0D80112968D919C911397009719F0F801E4
S11319F08C01F6CF8D919C9198012E5F3F4F820F01
S1131A00931F20913E0130913F012817390769F453
S1131A10309729F4109241011092400102C01382C0
S1131A20128210933F0100933E01DF91CF911F91E9
S10B1A300F910895F894FFCF13
S1091A3800004201200041
S9030000FC
