:100000000C9434000C9451000C9451000C94510049
:100010000C9451000C9451000C9451000C9451001C
:100020000C9451000C9451000C9451000C9451000C
:100030000C9451000C9451000C9451000C945100FC
:100040000C9451000C9451000C9451000C945100EC
:100050000C9451000C9451000C9451000C945100DC
:100060000C9451000C94510011241FBECFEFD8E026
:10007000DEBFCDBF21E0A0E0B1E001C01D92A03005
:10008000B207E1F711E0A0E0B1E0ECEAF0E002C075
:1000900005900D92A030B107D9F70E9453000C943F
:0C00A00054000C940000FFCFF894FFCF38
:00000001FF
